{
  "_format": "hh-sol-artifact-1",
  "contractName": "BuyMeCoffee",
  "sourceName": "contracts/BuyMeCoffee.sol",
  "abi": [
    {
      "inputs": [],
      "stateMutability": "nonpayable",
      "type": "constructor"
    },
    {
      "stateMutability": "payable",
      "type": "fallback"
    },
    {
      "inputs": [],
      "name": "_owner",
      "outputs": [
        {
          "internalType": "address payable",
          "name": "",
          "type": "address"
        }
      ],
      "stateMutability": "view",
      "type": "function"
    },
    {
      "inputs": [],
      "name": "buy",
      "outputs": [],
      "stateMutability": "payable",
      "type": "function"
    },
    {
      "inputs": [],
      "name": "withdraw",
      "outputs": [],
      "stateMutability": "nonpayable",
      "type": "function"
    },
    {
      "stateMutability": "payable",
      "type": "receive"
    }
  ],
  "bytecode": "0x6080604052670de0b6b3a764000060005534801561001c57600080fd5b506100656040518060400160405280601181526020017f436f6e7472616374204465706c6f7965640000000000000000000000000000008152506100ab60201b6102191760201c565b33600160006101000a81548173ffffffffffffffffffffffffffffffffffffffff021916908373ffffffffffffffffffffffffffffffffffffffff16021790555061022e565b610147816040516024016100bf91906101ac565b6040516020818303038152906040527f41304fac000000000000000000000000000000000000000000000000000000007bffffffffffffffffffffffffffffffffffffffffffffffffffffffff19166020820180517bffffffffffffffffffffffffffffffffffffffffffffffffffffffff838183161783525050505061014a60201b60201c565b50565b60008151905060006a636f6e736f6c652e6c6f679050602083016000808483855afa5050505050565b600061017e826101ce565b61018881856101d9565b93506101988185602086016101ea565b6101a18161021d565b840191505092915050565b600060208201905081810360008301526101c68184610173565b905092915050565b600081519050919050565b600082825260208201905092915050565b60005b838110156102085780820151818401526020810190506101ed565b83811115610217576000848401525b50505050565b6000601f19601f8301169050919050565b6104888061023d6000396000f3fe6080604052600436106100385760003560e01c80633ccfd60b14610041578063a6f2ae3a14610058578063b2bdfa7b146100625761003f565b3661003f57005b005b34801561004d57600080fd5b5061005661008d565b005b610060610188565b005b34801561006e57600080fd5b506100776101f3565b6040516100849190610363565b60405180910390f35b600160009054906101000a900473ffffffffffffffffffffffffffffffffffffffff1673ffffffffffffffffffffffffffffffffffffffff163373ffffffffffffffffffffffffffffffffffffffff161461011d576040517f08c379a0000000000000000000000000000000000000000000000000000000008152600401610114906103a0565b60405180910390fd5b600160009054906101000a900473ffffffffffffffffffffffffffffffffffffffff1673ffffffffffffffffffffffffffffffffffffffff166108fc479081150290604051600060405180830381858888f19350505050158015610185573d6000803e3d6000fd5b50565b600160009054906101000a900473ffffffffffffffffffffffffffffffffffffffff1673ffffffffffffffffffffffffffffffffffffffff166108fc349081150290604051600060405180830381858888f193505050501580156101f0573d6000803e3d6000fd5b50565b600160009054906101000a900473ffffffffffffffffffffffffffffffffffffffff1681565b6102af8160405160240161022d919061037e565b6040516020818303038152906040527f41304fac000000000000000000000000000000000000000000000000000000007bffffffffffffffffffffffffffffffffffffffffffffffffffffffff19166020820180517bffffffffffffffffffffffffffffffffffffffffffffffffffffffff83818316178352505050506102b2565b50565b60008151905060006a636f6e736f6c652e6c6f679050602083016000808483855afa5050505050565b6102e4816103dc565b82525050565b60006102f5826103c0565b6102ff81856103cb565b935061030f81856020860161040e565b61031881610441565b840191505092915050565b6000610330600e836103cb565b91507f4e6f7420617574686f72697a65640000000000000000000000000000000000006000830152602082019050919050565b600060208201905061037860008301846102db565b92915050565b6000602082019050818103600083015261039881846102ea565b905092915050565b600060208201905081810360008301526103b981610323565b9050919050565b600081519050919050565b600082825260208201905092915050565b60006103e7826103ee565b9050919050565b600073ffffffffffffffffffffffffffffffffffffffff82169050919050565b60005b8381101561042c578082015181840152602081019050610411565b8381111561043b576000848401525b50505050565b6000601f19601f830116905091905056fea26469706673582212204b8b315855b35191072c43438523daa76b15627653913137885be6811767be8564736f6c63430008000033",
  "linkReferences": {},
  "deployedLinkReferences": {}
}